S017000054686520627574746F6E2047616D652E7372656396
S11300000C943E000C945B000C945B000C945B001D
S11300100C945B000C945B000C945B000C945B00F0
S11300200C945B000C945B000C945B000C945B00E0
S11300300C945B000C945B000C945B000C945B00D0
S11300400C945B000C945B000C945B000C945B00C0
S11300500C945B000C945B000C945B000C945B00B0
S11300600C945B000C945B000C945B000C945B00A0
S11300700C945B000C945B000C945B0011241FBE79
S1130080CFEFD8E0DEBFCDBF11E0A0E0B1E0ECE5FA
S1130090F6E002C005900D92A230B107D9F721E035
S11300A0A2E0B1E001C01D92AC30B207E1F70E94BA
S11300B098010C942C030C94000060E082E40E94EC
S11300C08D0161E082E40E948D0162E082E40E947D
S11300D08D0163E082E40E948D0164E082E40E9469
S11300E08D0165E082E40E948D0166E082E40E9455
S11300F08D0160E084E40E948D0161E084E40E944B
S11301008D0162E084E40E948D0163E084E40E9436
S11301108D0164E084E40E948D0165E084E40E9422
S11301208D0166E084E40E948D0167E082E40E9410
S1130130860167E084E40E94860108950F931F936B
S1130140CF93082F10E0F801EE0FFF1FE85FFE4F7A
S1130150208131812F5F3F4F31832083243F314001
S113016084F1F801E050FF4F9081992309F1C82FE1
S1130170F801E050FF4F1082811108C0F801EA5FD6
S1130180FE4F608182E40E94910107C0F801EA5F9A
S1130190FE4F608184E40E949101F801EA5FFE4F02
S11301A08081863080F4F801EA5FFE4F8F5F8083A0
S11301B0000F111FF801E85FFE4F118210828FEFCC
S11301C003C08FEF01C08C2FCF911F910F91089521
S11301D090E0FC01EE0FFF1FEE5FFE4F20813181A6
S11301E02F5F3F4F31832083243F314064F0FC0173
S11301F0E050FF4F21E02083880F991FFC01EE5F40
S1130200FE4F118210820895882319F0813039F14C
S113021008952FEF84E39CE0215080409040E1F763
S113022000C0000060E082E40E94950161E082E485
S11302300E94950162E082E40E94950163E082E4F9
S11302400E94950164E082E40E94950165E082E4E5
S11302500E94950166E082E40E94950108952FEFC3
S113026084E39CE0215080409040E1F700C000000E
S113027060E084E40E94950161E084E40E949501B9
S113028062E084E40E94950163E084E40E949501A5
S113029064E084E40E94950165E084E40E94950191
S11302A066E084E40E9495010895CF93DF9300D023
S11302B0CDB7DEB71FEF1F3F29F5AE014F5F5F4F8C
S11302C067E082E40E948A01AE014E5F5F4F67E0FF
S11302D084E40E948A018981882329F080E00E94B5
S11302E09E00182F03C080E00E94E8008A818823C2
S11302F029F081E00E949E00182FDDCF81E00E944A
S1130300E800D9CF812F0E940401D5CF40E00E949C
S11303109D0108950E94C802089541E00E949D0134
S1130320089541E00E94170208950E9491020895E1
S11303300E945D000E945501FBCF823431F118F414
S1130340813439F008958334E1F1843409F454C0DC
S1130350089541110CC021B181E090E002C0880FE2
S1130360991F6A95E2F78095822381B908954130F7
S113037009F05CC021B181E090E002C0880F991FB0
S11303806A95E2F7822B81B9089541110CC024B11A
S113039081E090E002C0880F991F6A95E2F780958A
S11303A0822384B90895413009F040C024B181E02A
S11303B090E002C0880F991F6A95E2F7822B84B9F6
S11303C0089541110CC027B181E090E002C0880F6C
S11303D0991F6A95E2F78095822387B90895413081
S11303E029F527B181E090E002C0880F991F6A9532
S11303F0E2F7822B87B9089541110CC02AB181E03C
S113040090E002C0880F991F6A95E2F780958223D5
S11304108AB90895413051F42AB181E090E002C0D4
S1130420880F991F6A95E2F7822B8AB9089582345E
S113043031F118F4813439F008958334E1F18434CE
S113044009F454C0089541110CC022B181E090E038
S113045002C0880F991F6A95E2F78095822382B9BA
S11304600895413009F05CC022B181E090E002C0FF
S1130470880F991F6A95E2F7822B82B9089541117A
S11304800CC025B181E090E002C0880F991F6A95E5
S1130490E2F78095822385B90895413009F040C080
S11304A025B181E090E002C0880F991F6A95E2F7B8
S11304B0822B85B9089541110CC028B181E090E0E8
S11304C002C0880F991F6A95E2F78095822388B944
S11304D00895413029F528B181E090E002C0880FE9
S11304E0991F6A95E2F7822B88B9089541110CC0CF
S11304F02BB181E090E002C0880F991F6A95E2F762
S1130500809582238BB90895413051F42BB181E059
S113051090E002C0880F991F6A95E2F7822B8BB98D
S113052008958234A1F018F4813431F008958334AD
S1130530C9F0843411F1089522B181E090E002C041
S1130540880F991F6A95E2F7822782B9089525B129
S113055081E090E002C0880F991F6A95E2F7822734
S113056085B9089528B181E090E002C0880F991FF1
S11305706A95E2F7822788B908952BB181E090E06B
S113058002C0880F991F6A95E2F782278BB90895F4
S1130590823401F118F4813439F00895833481F1FF
S11305A0843409F443C0089570B181E090E09C0163
S11305B0062E02C0220F331F0A94E2F7872F90E021
S11305C08223932302C0959587956A95E2F7FA01F1
S11305D08083089573B181E090E09C01062E02C0EF
S11305E0220F331F0A94E2F7872F90E0822393238C
S11305F002C0959587956A95E2F7FA01808308957C
S113060076B181E090E09C01062E02C0220F331FD8
S11306100A94E2F7872F90E08223932302C09595F2
S113062087956A95E2F7FA018083089579B181E0AC
S113063090E09C01062E02C0220F331F0A94E2F7B9
S1130640872F90E08223932302C0959587956A951E
S10F0650E2F7FA0180830895F894FFCFCC
S105065C010196
S9030000FC
